:020000040800F2
:10000000D8570020290300080145000811360008D0
:10001000FD440008990D00084D4F00080000000045
:10002000000000000000000000000000690200085D
:10003000470F000800000000C502000881460008C4
:100040004303000843030008430300084303000878
:100050004303000843030008430300084303000868
:1000600043030008490F0008530F0008430300082A
:100070000D0E000843030008430300084303000873
:10008000430300084303000843030008AD0D0008C4
:100090009D0D000843030008430300085D0F00089E
:1000A0004303000843030008430300084303000818
:1000B0007D4700084303000843030008430300088A
:1000C00043030008430300084303000843030008F8
:1000D000430300081D4F0008430300082D4F00088C
:1000E00043030008430300084303000843030008D8
:1000F00043030008430300084303000843030008C8
:1001000043030008430300084303000843030008B7
:1001100043030008430300084303000843030008A7
:100120004303000843030008430300084303000897
:10013000430300084303000843030008E50D0008DB
:10014000D50D0008430300084303000843030008DB
:10015000430300081D0E00082D0E00083D4F000847
:100160004303000843030008430300084303000857
:100170004303000843030008430300080000000095
:10018000430300084303000800F002F800F05CF8A5
:100190000AA090E8000C82448344AAF10107DA45E2
:1001A00001D100F051F8AFF2090EBAE80F0013F0D8
:1001B000010F18BFFB1A43F001031847F87A00003B
:1001C000187B00000A444FF0000C10F8013B13F0BC
:1001D000070408BF10F8014B1D1108BF10F8015BA0
:1001E000641E05D010F8016B641E01F8016BF9D193
:1001F00013F0080F1EBF10F8014BAD1C0C1B09D1EA
:100200006D1E58BF01F801CBFAD505E014F8016B5B
:1002100001F8016B6D1EF9D59142D6D370470000ED
:100220000023002400250026103A28BF78C1FBD8FF
:10023000520728BF30C148BF0B6070471FB507F099
:1002400001F91FBD10B510BD00F09EF91146FFF772
:10025000F5FF05F0A9FF00F0BCF903B4FFF7F2FFCA
:1002600003BC00F0BFF900002C4B19680868B0E827
:10027000F04F80F30988BFF36F8F4FF0000080F3D9
:10028000118870470000000008480068006880F38B
:1002900008884FF0000080F3148862B661B6BFF39F
:1002A0004F8FBFF36F8F00DF00BF00BF08ED00E08E
:1002B000DFF80C00016841F470010160704700BF75
:1002C00088ED00E0EFF30980BFF36F8F134B1A68DE
:1002D0001EF0100F08BF20ED108A20E9F04F1060CB
:1002E00009B44FF0500080F31188BFF34F8FBFF374
:1002F0006F8F06F0E7FD4FF0000080F3118809BC16
:1003000019680868B0E8F04F1EF0100F08BFB0EC95
:10031000108A80F30988BFF36F8F70474402002072
:10032000EFF30580704700000948804709480047FF
:10033000FEE7FEE7FEE7FEE7FEE7FEE7FEE7FEE795
:10034000FEE7FEE704480549054A064B70470000F2
:100350006947000889010008D8510020D8570020BB
:10036000D8530020D853002053EA020C00F06980D3
:100370002DE9F04B4FF00006002B1FBFB3FA83F5B9
:1003800003FA05F424FA05F65E4012BF1643B2FAEA
:1003900082F502FA05F4C5F120051EBF22FA05FC1C
:1003A00044EA0C04203556EA044C4FEA144418BFC2
:1003B000641C4FF000084FF00009904271EB030CF1
:1003C00039D3002919BFB1FA81F701FA07F6B0FA5B
:1003D00080F700FA07F6C7F120071EBF20FA07FCD6
:1003E00046EA0C062037B6FBF4FCA7EB0507103FE6
:1003F00007F01F0BCBF120060CFA0BFB2CFA06F6CC
:1004000044BFB3460026202FA4BF5E464FF0000B2A
:100410005BEA060C08BF4FF0010B19EB0B09ABFBB5
:10042000027C48EB0608C01B06FB02CC0BFB03CC8E
:1004300071EB0C01C1E70B46024641464846BDE858
:10044000F08B13B54FF000004FF00001AFF30080C8
:10045000BDE81C40704710B5203AC0F00B80B1E8F1
:100460001850203AA0E81850B1E81850A0E81850E9
:10047000BFF4F5AF5FEA027C24BFB1E81850A0E8F2
:10048000185044BF18C918C0BDE810405FEA827C0C
:1004900024BF51F8043B40F8043B08BF7047D20723
:1004A00028BF31F8023B48BF11F8012B28BF20F8C4
:1004B000023B48BF00F8012B704702F0FF0343EAFC
:1004C000032242EA024200F037B84FF0000200B5C2
:1004D000134694469646203922BFA0E80C50A0E867
:1004E0000C50B1F12001BFF4F7AF090728BFA0E815
:1004F0000C5048BF0CC05DF804EB890028BF40F8E1
:10050000042B08BF704748BF20F8022B11F0804F22
:1005100018BF00F8012B704770477047704710B53F
:1005200000F02AF8006810BD10B5044600F024F869
:10053000046010BD4FF000020429C0F0128010F0DA
:10054000030C3FF4C4AFCCF1040CBCF1020F18BF94
:1005500000F8012BA8BF20F8022BA1EB0C01FFF73C
:10056000B6BF5FEAC17C24BF00F8012B00F8012B65
:1005700048BF00F8012B70470048704774510020B5
:1005800000487047745100207546FFF7F9FFAE46EA
:1005900005006946534620F00700854618B020B58F
:1005A000FFF7D0FEBDE820404FF000064FF00007F7
:1005B0004FF000084FF0000B21F00701AC46ACE80B
:1005C000C009ACE8C009ACE8C009ACE8C0098D4678
:1005D000704710B50446AFF300802046BDE81040D8
:1005E000FFF73BBE01491820ABBEFEE72600020024
:1005F000704710B52DED028BB0EE408AB0EE480A80
:1006000004F0D6FCBDEC028B10BD10B52DED028BB5
:10061000B0EE408AF0EE608AF0EE680AB0EE480A6A
:1006200004F05CFDBDEC028B10BD10B52DED028B0E
:10063000B0EE408AB0EE480A05F010F9BDEC028B2E
:1006400010BDF0EE400AF5EEC00AF1EE10FA02DD40
:10065000B0EE600A7047B1EE600AFBE718B19FED9B
:10066000020A80ED000A70470000000018B1B3EEE6
:10067000060A80ED000A704770B52DED0C8B84B032
:1006800006460C4615469FED990AF0EE408A9FED0E
:10069000970AB0EE409A9FED950AF0EE40BA9FEDB2
:1006A000930AF0EE409A9FED910AB0EE40AA0EB187
:1006B00004B11DB904B0BDEC0C8B70BD8C48FFF7C4
:1006C000CDFF8C48FFF7D2FF8A48D0ED000A9FED9E
:1006D0008A1A60EE810AB0EE600A00F02DF9F0EEA1
:1006E000408A28EEA80AF0EE408A8248D0ED000A3F
:1006F000B0EE001A60EE810A9FED7F1A60EE810A6B
:10070000B0EE600A00F018F9B0EE409A29EE090A3E
:10071000B0EE409ADFED790AB7EE000A00EEA80AC3
:10072000DFED770A00EEC90ADFED760A20EE200A37
:10073000754880ED000A6E4890ED000ADFED730AFF
:1007400080EE201AB7EE000A31EE000A20EE000A11
:100750006D48D0ED000A80EE801A6D4880ED001AD9
:1007600094ED000AB5EEC00AF1EE10FA0DD194ED49
:10077000010AB5EEC00AF1EE10FA06D194ED020AB4
:10078000B5EEC00AF1EE10FA46D09FED580AB0EE71
:10079000408A0020019002900390D4ED000A60EEA0
:1007A000A00A94ED011AD4ED011A41EE210A94ED4C
:1007B000021AD4ED021A41EE210AB0EE600A00F0EE
:1007C000A9F8B0EE408A94ED000A20EE080A8DEDFB
:1007D000010A94ED010A20EE080A8DED020A94ED5B
:1007E000020A20EE080A8DED030ADDED010AF1EEA2
:1007F000600AB0EE600AFFF7FCFEF0EE409A9DED55
:10080000031AF0EE410A9DED021AB0EE410AFFF71D
:10081000FCFEB0EE40AA07E09FED340AF0EE409AED
:100820009FED320AB0EE40AA95ED000AB5EEC00A7F
:10083000F1EE10FA0DD195ED010AB5EEC00AF1EE18
:1008400010FA06D195ED020AB5EEC00AF1EE10FAE3
:100850003CD0B0EE690A00F06FF8B0EE408AB0EE1E
:10086000690AFFF7E2FEB0EE40DAB0EE4A0A00F0A5
:1008700063F8F0EE40AAB0EE4A0AFFF7D6FEB0EEFB
:1008800040BA28EE2A0AD5ED010A20EE200AD5ED5D
:10089000000A0DEE200A68EE0B0A95ED021A00EE32
:1008A000810AB0EE40CA95ED010A20EE0B0AD5EDA3
:1008B000020A0AEEE00AF0EE40CAF0EE6C0AB0EE70
:1008C0004C0AFFF7A2FEF0EE40BA03E09FED070AE4
:1008D000F0EE40BAB0EE4A1AF0EE690AB0EE6B0ADA
:1008E000304604F005FF00BFE4E600000000000011
:1008F000B8020020BC02002035FA8E3CC1BFAD3BDF
:100900009DF8C5362F7C1C41C0020020506CC24AA5
:10091000C402002010B52DED028BB0EE408AB0EE7F
:10092000480A04F003FDB7EE001AC1EE000AB0EE6B
:10093000600ABDEC028B10BD10B52DED028BB0EE40
:10094000408AB0EE480A04F0D1FFBDEC028B10BD26
:100950002DE9F0412DED028B9AB00546B0EE408AAC
:100960000E4617469846002017901890199014903C
:10097000159016904DB146B13FB1B8F1000F04D0BB
:10098000B5EEC08AF1EE10FA05D100201AB0BDEC28
:10099000028BBDE8F08196ED000A8DED170A96ED09
:1009A000010A8DED180A96ED020A8DED190A97EDF0
:1009B000000A8DED140A97ED010A8DED150A97EDE9
:1009C000020A8DED160A17AA14A9284604F0E2FCC3
:1009D000402104A8FFF779FD0020009001900290CB
:1009E0000390002417A904A805F0F7FF00BF30E02A
:1009F00004A800EB041090ED000AD5ED000A20EEEB
:100A0000200A04A800EB0410D0ED010A95ED011AAC
:100A100000EE810A04A800EB0410D0ED020A95ED67
:100A2000021A00EE810A04A800EB0410D0ED030ABC
:100A300095ED031A00EE810A20EE080AF0EE000A96
:100A400080EE201A684600EB840080ED001A601CDE
:100A5000C4B2042CCCDB002410E005EB840090ED44
:100A6000000A684600EB8400D0ED000A30EE200A50
:100A700005EB840080ED000A601CC4B2042CECDBA2
:100A8000284605F049FF012080E7000010B501224B
:100A90001021024801F058F910BD0000000002408A
:100AA00010B500221021024801F04EF910BD0000DF
:100AB0000000024010B501221146024801F044F93D
:100AC00010BD00000004024010B5002201210248C0
:100AD00001F03AF910BD00000004024042F2172074
:100AE000064948610020088301204883002088834C
:100AF0000120C883C01E088470470000E80E002053
:100B000010B5002404F04AFF044304F0FDFF044341
:100B1000052005F085F8FFF7E1FF204610BD000035
:100B20002DE9FC4105460E46174600200090019035
:100B300000BFFFF7B5FF9221784803F023FD06229E
:100B40006946122000F0F2F8FFF7A0FF00BF9DF801
:100B50000100000200B29DF8001040EA0104704854
:100B600004809DF80300000200B29DF8021040EAE4
:100B700001046B4844809DF80500000200B29DF816
:100B8000041040EA01046648848000BFFFF79CFF20
:100B900008226946002000F0C9F8FFF78BFF00BF6C
:100BA0009DF800000F2829D19DF80300000200B233
:100BB0009DF8021040EA01045948808B201A00B2C7
:100BC0005749C8819DF80500000200B29DF8041045
:100BD00040EA01045248C08B201A00B250490882F2
:100BE0009DF80700000200B29DF8061040EA0104DB
:100BF0004B48008C201A00B24949488200BFFFF7D9
:100C00004FFFA221454803F0BDFC02226946222085
:100C100000F08CF8FFF73AFF00BF9DF80000C0001D
:100C20009DF8011040EA6114B4F5806F02DBA4F571
:100C3000006004B23A48B0F91200002803DD3848D9
:100C4000B0F9120003E03648B0F91200404214280F
:100C500002DA00203249488200EE104AF8EEC00A5B
:100C6000B4EE001AB3EE070A00EE810A87ED000A1F
:100C70002B48B0F9000000EE100AB8EEC00A29486F
:100C8000D0ED000A20EE200A86ED000A2448B0F9D3
:100C9000020000EE100AB8EEC00A2248D0ED000AA9
:100CA00020EE200A86ED010A1D48B0F9040000EE8E
:100CB000100AB8EEC00A1B48D0ED000A20EE200A48
:100CC00086ED020A1648B0F90E0000EE100AB8EEE2
:100CD000C00A1548D0ED000A20EE200A85ED000A72
:100CE0000F48B0F9100000EE100AB8EEC00A0E4826
:100CF000D0ED000A20EE200A85ED010A0848B0F97F
:100D0000120000EE100AB8EEC00A0748D0ED000A43
:100D100020EE200A85ED020ABDE8FC81B01100201A
:100D2000E80E0020CC010020D001002070B506465E
:100D30000C46154646F08001074803F023FC07E007
:100D40005521054803F01EFC2070641C681EC5B2C6
:100D5000002DF5D170BD0000B011002070B5044623
:100D60000D4644F08001044803F00CFC5521024874
:100D700003F008FC287070BDB011002070B5044667
:100D80000D462146034803F0FDFB2946014803F0C8
:100D9000F9FB70BDB011002000BFFEE710B502489E
:100DA00000F0A8F910BD00006011002010B5024845
:100DB00000F0A0F910BD00006011002070B50446DD
:100DC0000D46034A2946204605F02EF870BD000066
:100DD000F801002010B5024800F08CF910BD0000A9
:100DE0008811002010B5024800F084F910BD000001
:100DF0008811002070B504460D46034A2946204656
:100E000005F012F870BD00001002002010B5024875
:100E100000F0B2FC10BD00007C13002010B50248A9
:100E200000F0AAFC10BD0000DC13002010B5024841
:100E300000F0A2FC10BD00001C1300200146087841
:100E400010381823B0FBF3F20848805CC865032A09
:100E500005D908686FF30900001D886503E008687C
:100E60006FF309008865886D704700009074000872
:100E7000014600208A6A8B69CBB932B1012A0DD0B4
:100E8000022A03D0032A10D10EE000BFCB6A03F080
:100E90008073B3F1807F00D1012007E0CB6AB3F10A
:100EA000C07F00D1012001E000E000BF34E08B6989
:100EB000B3F5005F1AD132B1012A07D0022A03D05C
:100EC000032A11D10AE000BF01200EE0CB6A03F033
:100ED0008073B3F1807F00D1012006E0CB6AB3F1CB
:100EE000C07F00D1012000E000BF15E032B1012A2F
:100EF00005D0022A04D0032A0CD103E000BF00BFB2
:100F0000012008E0CB6A03F08073B3F1807F00D149
:100F1000012000E000BF00BF704730B504682468BE
:100F200024F4802405682C60046863608468402C85
:100F300004D10468A2600468E16003E00468A16071
:100F40000468E26030BD704710B5082000F0F4FD81
:100F500010BD10B5102000F0EFFD10BD10B5202021
:100F600000F0EAFD402000F0E7FD802000F0E4FD05
:100F700010BD72B600BFFEE7704770B5044694F826
:100F80002050012D01D0022D7DD151B92068C068BB
:100F900000F0030080B9606A40F400106062012034
:100FA00070BD2068006900F0030028B9606A40F451
:100FB000001060620120F3E7206800F5D87000EBB4
:100FC0000110006800F004009060906840B920684B
:100FD00000F5D87000EB01100068400D106007E0CC
:100FE000206800F5D87000EB01100068C008506060
:100FF000206800F5D87000EB0110006800F00200D6
:10100000D060206800F5D87000EB0110406800F057
:101010000F001061206800F5D87000EB01104068E7
:1010200000F47F40000A9061206800F5D87000EB62
:1010300001104068000C5061206800F5D87000EB8A
:10104000011080681870206800F5D87000EB01105E
:10105000806800F47F40000A5870206800F5D8705E
:1010600000EB0110806800F47F00000C987020688D
:1010700000F5D87000EB01108068000ED870206871
:1010800000F5D87000E02FE000EB0110C068187187
:10109000206800F5D87000EB0110C06800F47F40B4
:1010A000000A5871206800F5D87000EB0110C06884
:1010B00000F47F00000C9871206800F5D87000EBF8
:1010C0000110C068000ED87131B92068C06840F0C6
:1010D00020002668F06005E02068006940F02000EC
:1010E0002668306100205BE7606A40F4802060621F
:1010F000012055E72DE9F05F044600252068466988
:101100002068D0F80490206887682068D0F80CA088
:101110002068D0F810B02068D0F8188006F00100E0
:10112000002855D007F00100C0B101202168886077
:1011300007F0020018B1204600F0AEFA0EE007F00A
:10114000040010B145F4006508E007F0080010B194
:1011500045F4805502E0204600F09DFA07F48070C7
:10116000C8B14FF480702168886007F4007018B12E
:10117000204600F093FA0EE007F4806010B145F4C9
:10118000005508E007F4006010B145F4804502E026
:10119000204600F082FA07F48030C8B14FF4803066
:1011A0002168886007F4003018B1204600F078FA12
:1011B0000EE007F4802010B145F4004508E007F484
:1011C000002010B145F4803502E0204600F067FAB7
:1011D00006F0080038B10AF0100020B145F400759F
:1011E00010202168C86006F0040040B10AF0080031
:1011F00028B108202168C860204600F01DFA06F0DA
:10120000020038B12068C06800F0030010B1204629
:1012100000F014FA06F0400038B10BF0100020B1D5
:1012200045F4806510202168086106F0200040B177
:101230000BF0080028B1082021680861204600F062
:1012400027FA06F0100038B12068006900F00300AA
:1012500010B1204600F01DFA06F4003040B109F04C
:10126000100028B1102021684860204600F012FAD2
:1012700006F4803040B109F0080028B10820216848
:101280004860204600F00DFA06F4004088B309F0EB
:10129000040078B306F4807020B108F0010008B1B2
:1012A00045F0010506F4007020B108F0020008B115
:1012B00045F0020506F4806020B108F0040008B192
:1012C00045F0040506F40060A0B108F0700088B194
:1012D00008F07000402817D006DC10280BD020281A
:1012E0000CD0302819D10CE0502810D0602814D12F
:1012F00010E01DE019E045F008050FE045F010058D
:101300000CE045F0200509E045F0400506E045F019
:10131000800503E045F4807500E000BF00BF206851
:10132000806920F07000216888610420216848608D
:101330002DB1606A284360622046FFF71DFEBDE8BC
:10134000F09F70B504460CB9012070BD94F82000E0
:1013500010B9204600F0B0F82068006840F00100A5
:101360002168086000F0F6FC05460DE000F0F2FC94
:10137000401B0A2808D9606A40F4003060620520EA
:1013800084F820000120E0E72068406800F00100B8
:101390000028EBD02068006820F002002168086077
:1013A00000F0D8FC05460DE000F0D4FC401B0A28F4
:1013B00008D9606A40F400306062052084F820009B
:1013C0000120C2E72068406800F002000028EBD14D
:1013D000207E012806D12068006840F08000216846
:1013E000086005E02068006820F08000216808603F
:1013F000607E012806D12068006840F04000216826
:10140000086005E02068006820F04000216808605E
:10141000A07E012806D12068006840F020002168E5
:10142000086005E02068006820F02000216808605E
:10143000E07E012806D12068006820F010002168B5
:10144000086005E02068006840F01000216808602E
:10145000207F012806D12068006840F0080021683C
:10146000086005E02068006820F008002168086036
:10147000607F012806D12068006840F004002168E0
:10148000086005E02068006820F00400216808601A
:10149000D4E902010843216908436169084361688E
:1014A000491E08432168C86100206062012084F859
:1014B0002000002049E7000010B586B00446142142
:1014C00001A8FFF702F856492068884249D15548DB
:1014D0000068401C534908600846006801280FD185
:1014E00000BF002000905048006840F000704E4956
:1014F00008600846006800F00070009000BF00BF60
:1015000000BF0020009048481038006840F00800F4
:101510004549103908600846006800F0080000904E
:1015200000BF00BF03200190022002900020039022
:10153000032004900920059001A93C4800F00AFB13
:1015400000220521132000F0C9FC132000F0B6FC96
:1015500000220521142000F0C1FC142000F0AEFC94
:101560005CE033492068884258D100BF00200090D9
:101570002D48006840F080602B49086008460068EC
:1015800000F08060009000BF00BF26480068401C4B
:10159000244908600846006801280FD100BF0020D8
:1015A00000902148006840F000701F49086008461C
:1015B000006800F00070009000BF00BF00BF002076
:1015C000009019481038006840F0020016491039A0
:1015D00008600846006800F00200009000BF00BFED
:1015E00060200190022002900020039003200490CC
:1015F0000920059001A90F4800F0ACFA002205214E
:101600003F2000F06BFC3F2000F058FC0022052139
:10161000402000F063FC402000F050FC06B010BDFC
:10162000006400403C02002040380240000C0240B0
:1016300000680040000402407047000010B50446F6
:101640001049206888420CD10F4BA3F11C020021E5
:101650002046FFF792FC0C49A1F11C00FFF7AEFBFE
:101660000FE00A49206888420BD1074BA3F11C0206
:1016700000212046FFF781FC0349A1F11C00FFF780
:10168000B9FB10BD006400404C0E00200068004013
:101690007047704770477047704770477047704792
:1016A0007047704770B50446A56D00F053FB0646C1
:1016B00094F83500022808D08020606500BF002023
:1016C00084F8340000BF012070BD2068006820F05D
:1016D0001600216808602068406920F080002168B9
:1016E0004861206C08B9A06C28B12068006820F01F
:1016F0000800216808602068006820F00100216867
:10170000086010E000F026FB801B05280BD9202084
:101710006065032084F8350000BF002084F83400A1
:1017200000BF0320D0E72068006800F00100002817
:10173000E8D194F85C103F208840A860012084F82C
:10174000350000BF002084F8340000BF00BFBBE7B5
:10175000014691F83500022803D080204865012019
:101760007047052081F835000868006820F0010006
:101770000A6810600020F3E7F8B5044600200090E6
:101780008C4800684FF41651B0FBF1F7A56D2E6838
:1017900094F85C1008208840304098B120680068B8
:1017A00000F0040070B12068006820F00400216897
:1017B000086094F85C1008208840A860606D40F0D4
:1017C0000100606594F85C1001208840304068B1E9
:1017D0002068406900F0800040B194F85C1001205E
:1017E0008840A860606D40F00200606594F85C106D
:1017F00004208840304068B12068006800F0020092
:1018000040B194F85C1004208840A860606D40F0FE
:101810000400606594F85C1010208840304078B374
:101820002068006800F0080050B394F85C101020A5
:101830008840A8602068006800F4802080B120689B
:10184000006800F4002028B9206CC8B12046216C43
:10185000884715E0A06C98B12046A16C88470FE03E
:101860002068006800F4807028B92068006820F0C3
:10187000080021680860206C10B12046216C884760
:1018800094F85C10202088403040002865D0206803
:10189000006800F0100000285FD094F85C10202051
:1018A0008840A86094F83500052828D12068006891
:1018B00020F01600216808602068406920F0800050
:1018C00021684861206C08B9A06C28B120680068C4
:1018D00020F008002168086094F85C103F208840E0
:1018E000A860012084F8350000BF002084F834008F
:1018F00000BF206D10B12046216D8847F8BD2068DB
:10190000006800F4802080B12068006800F40020A6
:1019100028B9606C10B12046616C88471DE0E06B0F
:10192000D8B12046E16B884717E02068006800F4D2
:10193000807068B92068006820F010002168086095
:10194000012084F8350000BF002084F8340000BF77
:10195000E06B10B12046E16B8847606D38B3606D75
:1019600000F00100F0B1052084F83500206800681F
:1019700020F001002168086000BF0098401C009022
:10198000B84200D905E02068006800F00100002896
:10199000F3D100BF012084F8350000BF002084F897
:1019A000340000BFE06C10B12046E16C884700BFF6
:1019B000A4E70000400200202DE9F0410446002584
:1019C00000F0C8F9074614B90120BDE8F081606A4B
:1019D00000B100BF022084F8350000BF002084F869
:1019E000340000BF2068006820F001002168086012
:1019F0000AE000F0AFF9C01B052805D9202060657A
:101A0000032084F83500E0E72068006800F001005A
:101A10000028EED12068056821480540D4E901017D
:101A20000843E16808432169084361690843A169E3
:101A30000843E1690843216A08430543606A0428B2
:101A400003D1D4E90B0108430543206805602068F1
:101A5000456925F00705606A0543606A04280DD1D1
:101A6000A06A0543E06A48B12046FFF701FA28B1B1
:101A700040206065012084F83500A6E720684561B4
:101A80002046FFF7DBF9064694F85C103F208840BB
:101A9000B06000206065012084F83500002094E7E4
:101AA0003F8010F02DE9F04704460D4616461F46CC
:101AB0004FF00008D4F8589000BF94F83400012883
:101AC00002D10220BDE8F087012084F8340000BF75
:101AD00094F83500012825D1022084F83500002033
:101AE00060653B46324629462046FFF716FA94F8D1
:101AF0005C103F208840C9F808002068006840F06A
:101B0000160021680860206C28B12068006840F049
:101B10000800216808602068006840F00100216822
:101B2000086006E000BF002084F8340000BF4FF0DA
:101B300002084046C6E7704710B5044604480068EE
:101B4000204020B1024804602046FFF7F4FF10BD9A
:101B5000143C0140F8B502460B4600250024002045
:101B60000021D6E0012606FA01F51E6806EA050402
:101B7000AC4274D11E7906F00306012E04D01E7902
:101B800006F00306022E13D190684F000326BE40D4
:101B9000B0434F00DE68BE4030439060506801267D
:101BA0008E40B0431E79C6F300168E40304350601D
:101BB0001E7906F00306032E09D0D0684F000326D5
:101BC000BE40B0434F009E68BE403043D0601E7997
:101BD00006F00306022E13D1CF0802F1200656F8B4
:101BE00027004E07F70E0F26BE40B0434F07FF0EEB
:101BF0001E69BE403043CF0802F1200646F8270098
:101C000010684F000326BE40B0431E7906F003065D
:101C10004F00BE40304310605E6806F44036002E30
:101C200076D000BF002600963C4E366846F48046CB
:101C30003A4F3E603E46366806F48046009600BF46
:101C400000BF374E8F0856F827008E07370F0F2634
:101C5000BE40B043334EB24202D1002624E057E0EA
:101C6000314EB24201D101261EE0304EB24201D1C6
:101C7000022619E02E4EB24201D1032614E02D4E69
:101C8000B24201D104260FE02B4EB24201D105260B
:101C90000AE02A4EB24201D1062605E0284EB242A1
:101CA00001D1072600E008268F073F0FBE403043D2
:101CB0001B4E8F0846F82700224E3068A0435E680E
:101CC00006F4801606B120431E4E3060361D306883
:101CD000A0435E6806F4001606B12043194E361D77
:101CE0003060184E361F3068A0435E6806F4003638
:101CF00006B12043134E361F3060361F3068A043B4
:101D00005E6806F4803606B120430E4E083E306011
:101D1000491C1029FFF426AFF8BD000044380240EA
:101D20000838014000000240000402400008024060
:101D3000000C024000100240001402400018024053
:101D4000001C0240083C01400AB1816101E00B0423
:101D5000836170470148006870470000AC020020B2
:101D6000034800680349097808440149086070473E
:101D7000AC020020B402002010B50D48006840F409
:101D800000700B4908600846006840F480600860F5
:101D90000846006840F480700860032000F0DCF81A
:101DA0000F2000F007F800F05FF8002010BD0000E1
:101DB000003C02402DE9F04188B004460027B846B7
:101DC00000BF002001902448006840F00100224933
:101DD00008600846006800F00100019000BF00BFE5
:101DE00002A903A800F08EF9069F1FB900F0B2F90E
:101DF000054602E000F0AEF945001848B5FBF0F0EA
:101E0000A0F101084FF080401549086040F2E73129
:101E10001348C160C0F804800021016181608161C4
:101E200000F03BFE064696B90D4800F083FE0646DC
:101E30006EB91C2000F042F8102C07D20022214677
:101E40001C2000F04BF80748046000E001263046F3
:101E500008B0BDE8F08100004038024040420F0069
:101E60003C140020B002002008B500BF0020009004
:101E70001148006840F480400F4908600846006837
:101E800000F48040009000BF00BF00BF0020009021
:101E9000081F006840F08050091F0860084600686D
:101EA00000F08050009000BF00BF00220F21901E64
:101EB00000F014F808BD000044380240014608460E
:101EC000002809DB00F01F0301229A4043099B0010
:101ED00003F1E023C3F8002100BF70472DE9F05F54
:101EE00080460D461646002703F046F80746394659
:101EF0002A46334601F00700C0F1070ABAF1040F81
:101F000002D94FF0040A01E0C0F1070AD14600F1FE
:101F1000040ABAF1070F02D24FF0000A01E0A0F163
:101F2000030AD4464FF0010A0AFA09FAAAF1010A93
:101F30000AEA020A0AFA0CFA4FF0010B0BFA0CFB40
:101F4000ABF1010B0BEA030B4AEA0B0421464046B6
:101F500003F01AF8BDE8F09F00BF00F00702064B3F
:101F600019684FF6FF031940044B0B4343EA022163
:101F7000014B196000BF70470CED00E00000FA054E
:101F800070B504460D460CB9012070BD5848006874
:101F900000F00700A84209D255490D7008460068B4
:101FA00000F00700A84201D00120EEE7207800F001
:101FB000020002281DD1207800F00400042805D179
:101FC0004C48006840F4E0504A490860207800F02E
:101FD0000800082805D14748006840F4604045499A
:101FE00008604448006820F0F000A16808434149B7
:101FF0000860207800F00100A8B36068012807D1CC
:102000003C4808380068C0F34040B8B90120BCE73C
:102010006068022802D06068032807D13548083874
:102020000068C0F3406048B90120AEE73148083885
:102030000068C0F3400008B90120A6E72D480068F9
:1020400020F00300616808432A490860FFF782FE18
:10205000064609E0FFF77EFE801B41F28831884288
:1020600002D9032091E707E02248006800F00C0045
:102070006168B0EB810FEDD11D48006800F00700EA
:10208000A84209D91A490D700846006800F00700F7
:10209000A84201D0012078E7207800F0040004284D
:1020A00007D11448006820F4E050E1680843114962
:1020B0000860207800F00800082808D10D48006862
:1020C00020F46040216940EAC1000A49086000F03C
:1020D00061F808490968C1F30311074A515CC84017
:1020E0000649086006480068FFF764FE00204CE7D8
:1020F000003C02400838024078740008400200208A
:10210000B00200200F2202600D4A126802F00302A2
:1021100042600B4A126802F0F0028260084A1268BC
:1021200002F4E052C260064A126802F46042D20829
:102130000261044A126802F007020A607047000058
:1021400008380240003C0240014800687047000027
:102150004002002000B5FFF7F7FF04490968C1F30A
:102160008221034A515CC84000BD0000083802408B
:102170008874000800B5FFF7E7FF04490968C1F358
:102180004231034A515CC84000BD0000083802409B
:10219000887400082DE9F047002400250026A14698
:1021A0002548006800F00C0020B1042805D008285C
:1021B0003AD105E0DFF8849039E0DFF8849036E02A
:1021C0001D48001F006800F03F041B48001F006806
:1021D00000F4800078B11A481749091F0968C1F353
:1021E0008811A0FB01700146224600233846FEF705
:1021F000BBF805460EE011480F49091F0968C1F3F5
:102200008811A0FB01700146224600233846FEF7E4
:10221000ABF805460848001F0068C0F30140401CA9
:102220004600B5FBF6F902E0DFF8109000BF00BFF2
:102230004846BDE8F0870000083802400024F4005A
:10224000001BB700F8B504460CB90120F8BD207892
:1022500000F00100002874D0F948006800F00C007C
:1022600004280DD0F648006800F00C00082813D1AF
:10227000F348001F006800F48000B0F5800F0BD118
:10228000EF4808380068C0F34040002859D0606823
:10229000002856D10120D9E700BF6068B0F5803F23
:1022A00008D1E7480838006840F48030E44908392C
:1022B00008601EE06068B0F5A02F0DD1E048083836
:1022C000006840F48020DE4908390860084600684C
:1022D00040F4803008600CE0D9480838006820F4E9
:1022E0008030D749083908600846006820F480200B
:1022F000086000BF606890B1FFF72CFD054606E05E
:10230000FFF728FD401B642801D903209EE7CC4835
:1023100008380068C0F340400028F1D011E0FFF712
:1023200019FD054606E0FFF715FD401B642801D99D
:1023300003208BE7C24808380068C0F340400028FB
:10234000F1D1207800F0020002285FD1BC4800687B
:1023500000F00C0058B1BA48006800F00C000828E2
:102360001CD1B748001F006800F48000B0B9B44821
:1023700008380068C0F3400020B1E068012801D0AF
:10238000012063E7AE480838006820F0F8002169B2
:1023900040EAC100AA490839086037E0E06800B3A4
:1023A0000120A8490860FFF7D5FC054606E0FFF7C5
:1023B000D1FC401B022801D9032047E7A048083878
:1023C0000068C0F340000028F1D09D48083800683C
:1023D00020F0F800216940EAC100994908390860F5
:1023E00014E0002097490860FFF7B4FC054606E0BA
:1023F000FFF7B0FC401B022801D9032026E79048D4
:1024000008380068C0F340000028F1D1207800F0BF
:10241000080008282CD16069A8B101208A49086009
:10242000FFF798FC054606E0FFF794FC401B0228E6
:1024300001D903200AE782486C300068C0F34000ED
:102440000028F1D014E000207F490860FFF782FCEB
:10245000054606E0FFF77EFC401B022801D9032059
:10246000F4E677486C300068C0F340000028F1D1F2
:10247000207800F00400042870D10027704838301C
:10248000006800F0805090B900BF002000906C48B8
:102490003830006840F0805069493831086008469B
:1024A000006800F08050009000BF00BF012767481F
:1024B000006800F48070B0B96448006840F480702F
:1024C00062490860FFF746FC054606E0FFF742FC5C
:1024D000401B022801D90320B8E65C48006800F4DC
:1024E00080700028F2D000BFA068012808D15448AD
:1024F0006830006840F001005149683108601DE013
:10250000A06805280DD14E486830006840F00400EE
:102510004B49683108600846006840F001000860D7
:102520000CE047486830006820F0010044496831F9
:1025300008600846006820F00400086000BFA0683A
:10254000A8B1FFF707FC054609E0FFF703FC401BB5
:1025500041F28831884202D9032077E626E03848E4
:1025600068300068C0F340000028EED013E0FFF7A9
:10257000F1FB054608E0FFF7EDFB401B41F2883117
:10258000884201D9032061E62D4868300068C0F315
:1025900040000028EFD1012F07D1294838300068CA
:1025A00020F0805026493831086000BFA06900281B
:1025B00045D02348006800F00C0008285DD0A069D1
:1025C000022845D100201F490866FFF7C3FB0546D6
:1025D00006E0FFF7BFFB401B022801D9032035E6C8
:1025E000174808380068C0F340600028F1D1D4E9EA
:1025F00007010843616A40EA81110122A06AC2EB27
:10260000500041EA00412C20005D41EA00600C4985
:10261000091F086001200B490866FFF79BFB054670
:1026200006E0FFF797FB401B022801D903200DE6C7
:10263000034808380068C0F340600028F1D049E042
:102640000838024000004742800E474200700040B8
:10265000002021490866FFF77DFB054606E0FFF7ED
:1026600079FB401B022801D90320EFE51B480068D5
:10267000C0F340600028F2D12CE0A069012800D10D
:10268000E4E51648001D0668A069012820D006F47C
:102690008001E06981421BD106F03F01206A81423E
:1026A00016D147F6C0703040616AB0EB811F0FD180
:1026B00006F440310122A06AC2EB5000B1EB004F9A
:1026C00006D106F070612C20005DB1EB006F01D0E7
:1026D0000120BBE50020B9E5000047420038024078
:1026E00010B504460CB9012010BD606A38B96068A5
:1026F000B0F5827F00D105E00021E16102E0002118
:10270000216161610021A16294F8510028B9002083
:1027100084F85000204600F047F8022084F8510069
:102720002068006820F0400021680860A08800F45C
:102730008270218901F404410843A18901F40061F8
:102740000843217C01F002010843217D01F00101D1
:102750000843218B01F400710843217F01F0380107
:1027600008432021095D01F080010843218D01F417
:1027700000510843216808600421A06901EA104063
:1027800094F8241001F01001084321684860206883
:10279000C06920F400602168C861002060650120E4
:1027A00084F8510000209FE710B586B0044614213C
:1027B00001A8FDF78AFE2949206888424CD100BF54
:1027C000002000902648006840F4805024490860AA
:1027D0000846006800F48050009000BF00BF00BFB2
:1027E000002000901E481438006840F002001C4988
:1027F000143908600846006800F00200009000BF2D
:1028000000BF00BF002000900846006840F00100B3
:1028100008600846006800F00100009000BF00BF9B
:1028200018200190022002900120039003200490C0
:102830000520059001A90B48FFF78CF98020019035
:1028400002200290012003900320049005200590AF
:1028500001A90548FFF77EF906B010BD0030014020
:102860004438024000040240000002402DE9FF5FAE
:102870000446884691461D460E9E01200290002087
:10288000019000BF94F85000012803D1022004B049
:10289000BDE8F09F012084F8500000BFFFF75AFA0E
:1028A000074694F851B060680390AA46BBF1010F47
:1028B0000BD00398B0F5827F04D1A06810B9BBF1AA
:1028C000040F02D002200190DBE0B8F1000F03D02A
:1028D000B9F1000F00D015B901200190D1E094F8B2
:1028E0005100042802D0052084F8510000206065C2
:1028F000C4F83890E587A587C4F83080E586A586BA
:10290000206460642068006800F04000402805D022
:102910002068006840F0400021680860E068B0F579
:10292000006F4AD1606810B1BAF1010F09D1206B74
:1029300000882168C860206B801C2063E08E401EE8
:10294000E08633E02068806800F00200022810D1A1
:10295000E08E70B1029801280BD1206B00882168AD
:10296000C860206B801C2063E08E401EE086002043
:1029700002902068806800F0010068B1E08F58B1D3
:102980002068C068A16B0880A06B801CA063E08FEA
:10299000401EE08701200290FFF7DCF9C01BB04227
:1029A00004D3701C10B1032001906AE0E08E00286F
:1029B000C8D1E08F0028C5D14AE0606810B1BAF1F3
:1029C000010F09D1206B007821680873206B401C2F
:1029D0002063E08E401EE08634E02068806800F0CE
:1029E0000200022810D1E08E70B1029801280BD1AC
:1029F000206B007821680873206B401C2063E08EF8
:102A0000401EE086002002902068806800F00100EF
:102A100068B1E08F58B12068C068A16B0870A06BE6
:102A2000401CA063E08F401EE08701200290FFF76A
:102A300091F9C01BB04201D3701C00B916B9032034
:102A400001901EE0E08E0028C7D1E08F0028C4D19D
:102A50003A463146204601F05FFD20B10120019049
:102A6000202060650DE0A06850B900BF00200090F4
:102A70002068C068009020688068009000BF00BF98
:102A800000BF012084F8510000BF002084F85000EE
:102A900000BF0198FBE67047704710B504460CB9BB
:102AA000012010BD94F83D0028B9002084F83C00B6
:102AB000204600F025F8022084F83D00211D206802
:102AC00001F064FE012084F8460000BF84F83E0057
:102AD00001213F200155402001554120015500BFF3
:102AE00000BF012084F842004320015544200155D5
:102AF0004520015500BF012084F83D000020D0E7AB
:102B000008B50A4A016891420FD100BF0021009127
:102B10000749096841F40031054A11601146096806
:102B200001F40031009100BF00BF08BD0044014026
:102B300044380240014691F83D00012801D00120AF
:102B40007047022081F83D000868C06840F001002D
:102B50000B68D8601A4B086898421BD00868B0F11F
:102B6000804F17D0174B0868984213D0164B08684F
:102B700098420FD0154B086898420BD0144B086848
:102B8000984207D0134B0868984203D0124B08684C
:102B900098420CD10868806800F00702062A0CD021
:102BA0000868006840F001000B68186005E00868DC
:102BB000006840F001000B6818600020C0E70000CA
:102BC000000001400004004000080040000C0040EC
:102BD000000401400040014000180040704710B55B
:102BE000044620680069C0F34000D8B12068C0687E
:102BF000C0F34000B0B16FF002002168086101200D
:102C000020772068806900F0030018B12046FFF7A4
:102C1000E5FF05E0204600F0DDF8204600F091F9E0
:102C20000020207720680069C0F38000D8B12068B8
:102C3000C068C0F38000B0B16FF004002168086183
:102C4000022020772068806900F4407018B1204687
:102C5000FFF7C4FF05E0204600F0BCF8204600F076
:102C600070F90020207720680069C0F3C000D8B157
:102C70002068C068C0F3C000B0B16FF008002168E0
:102C80000861042020772068C06900F0030018B1B3
:102C90002046FFF7A3FF05E0204600F09BF8204602
:102CA00000F04FF90020207720680069C0F3001081
:102CB000D8B12068C068C0F30010B0B16FF0100048
:102CC00021680861082020772068C06900F44070FE
:102CD00018B12046FFF782FF05E0204600F07AF8A1
:102CE000204600F02EF9002020772068006900F0CF
:102CF000010058B12068C06800F0010030B16FF0E9
:102D0000010021680861204600F01CF92068006974
:102D1000C0F3C01058B12068C068C0F3C01030B113
:102D20006FF08000216808612046FFF7B4FE20683C
:102D30000069C0F3801058B12068C068C0F38010EB
:102D400030B16FF0400021680861204600F003F9BF
:102D500020680069C0F3401058B12068C068C0F313
:102D6000401030B16FF02000216808612046FFF765
:102D700093FE10BD10B586B00446142101A8FDF7DE
:102D8000A4FB1149206888421CD100BF002000909C
:102D90000E48006840F020000C49086008460068B2
:102DA00000F02000009000BF00BF402001900220F2
:102DB00002900020039004900320059001A904488C
:102DC000FEF7C8FE06B010BD004401403038024096
:102DD0000014024070472DE9F04104460D461646A6
:102DE000002700BF94F83C00012802D10220BDE872
:102DF000F081012084F83C0000BF36B1042E1BD0C6
:102E0000082E31D00C2E5ED145E02946206801F015
:102E100029FD2068806940F00800216888612068E9
:102E2000806920F004002168886120688069296930
:102E300008432168886148E02946206801F04AFD7E
:102E40002068806940F4006021688861206880699A
:102E500020F480602168886120688069296940EADF
:102E600001202168886130E02946206801F070FD6A
:102E70002068C06940F008002168C8612068C06906
:102E800020F004002168C8612068C06929690843EE
:102E90002168C86119E02946206801F095FD206885
:102EA000C06940F400602168C8612068C06920F4EE
:102EB00080602168C8612068C069296940EA0120F2
:102EC0002168C86101E0012700BF00BF00BF0020EA
:102ED00084F83C0000BF384689E710B504460CB9B9
:102EE000012010BD94F83D0028B9002084F83C0072
:102EF000204600F025F8022084F83D00211D2068BE
:102F000001F044FC012084F8460000BF84F83E0034
:102F100001213F200155402001554120015500BFAE
:102F200000BF012084F84200432001554420015590
:102F30004520015500BF012084F83D000020D0E766
:102F40007047704710B504462068B0F1804F01D13A
:102F5000FEF706FF10BD7047704770472DE9F84F28
:102F60000446206805682068C668206847694FF0F5
:102F70000009CA4605F00F09B9F1000F0AD105F0A2
:102F8000200038B106F0200020B1204601F004FEF8
:102F9000BDE8F88FB9F1000F7CD007F0010018B937
:102FA00006F49070002875D005F0010030B106F4E9
:102FB000807018B1206C40F00100206405F004001E
:102FC00030B107F0010018B1206C40F0020020641D
:102FD00005F0020030B107F0010018B1206C40F09C
:102FE0000400206405F0080048B106F0200010B984
:102FF00007F0010018B1206C40F008002064206C3C
:10300000002846D005F0200028B106F0200010B1BD
:10301000204601F0C1FD20684069C0F3801A206C91
:1030200000F0080010B9BAF1000F2DD0204601F0D1
:103030005AFD2068406900F04000402820D100BFC0
:1030400000BF2168143151E8001F21F040002168C1
:10305000143141E80002002AF3D100BFA06B50B147
:103060007548A16B0865A06BFEF772FB88B1A06B79
:10307000016D88470DE02046FFF76FFF09E009E08A
:103080002046FFF76AFF04E02046FFF766FF0020B6
:1030900020647DE7206B012876D105F01000002820
:1030A00072D006F010000028FAD000BF0020009077
:1030B00020680068009020684068009000BF00BF52
:1030C0002068406900F0400040285ED1A06B006895
:1030D00040681FFA80F8B8F1000F54D0A08D404529
:1030E00051DDA4F82E80A06BC069B0F5807F43D07D
:1030F00000BF00BF21680C3151E8001F21F480702F
:1031000021680C3141E80002002AF3D100BF00BF62
:1031100000BF2168143151E8001F21F0010021682F
:10312000143141E80002002AF3D100BF00BF00BF04
:103130002168143151E8001F21F04000216814314A
:1031400041E80002002AF3D100BF202084F83E00AD
:103150000020206300BF00BF21680C3151E8001F30
:1031600021F0100021680C3141E80002002AF3D15F
:1031700000BFA06BFEF796FAA08DE28D801A81B297
:103180002046FFF7E9FE03E740E0A08DE18D401AFD
:103190001FFA80F8E08DC0B3B8F1000F35D000BF42
:1031A00000BF21680C3151E8001F21F490702168A4
:1031B0000C3141E80002002AF3D100BF00BF00BF7C
:1031C0002168143151E8001F21F0010021681431F9
:1031D00041E80002002AF3D100BF202084F83E001D
:1031E0000020206300BF00BF21680C3151E8001FA0
:1031F00021F0100021680C3141E80002002AF3D1CF
:1032000000BF41462046FFF7A7FEC1E605F080005B
:1032100030B106F0800018B1204601F04FFEB7E64D
:1032200005F0400030B106F0400018B1204601F032
:1032300090FCADE600BFABE61D4A000810B50446A1
:103240000CB9012010BDA06900B100E000BF94F8E6
:103250003D0028B9002084F83C00204600F028F802
:10326000242084F83D002068C06820F400502168C4
:10327000C860204601F00CFD2068006920F49040F1
:10328000216808612068406920F02A0021684861AF
:103290002068C06840F400502168C86000202064A5
:1032A000202084F83D0084F83E000020CAE700009A
:1032B00010B586B00446142101A8FDF706F99A4915
:1032C0002068884275D100BF0020009097480068B0
:1032D00040F01000954908600846006800F01000B2
:1032E000009000BF00BF00BF002000908F4814383E
:1032F000006840F002008D491439086008460068F3
:1033000000F00200009000BF00BF00BF002000904E
:103310000846006840F0010008600846006800F0B8
:103320000100009000BF00BF8020019002200290A9
:1033300000200390032004900720059001A97C48F9
:10334000FEF708FC4FF4007001900220029000206C
:103350000390032004900720059001A97548FEF70B
:10336000F9FB7548754908604FF0006048604021DE
:10337000724881600021C1604FF4806101610021C9
:1033800041618161C16101624162FEF715FB08B1D3
:10339000FDF7EFFD00BF69486063846300BF002252
:1033A00005212520FEF79AFD2520FEF787FDB9E0CF
:1033B000FFE763492068884258D100BF0020009091
:1033C0005A48001F006840F480205849091F0860CF
:1033D0000846006800F48020009000BF00BF00BFD6
:1033E0000020009051481438006840F004004F4914
:1033F000143908600846006800F00400009000BF1F
:1034000000BF4FF440600190022002900020039022
:10341000032004900720059001A94A48FEF79AFB73
:1034200049484A4908604FF0006048600021474819
:103430008160C1604FF4806101610021416181615F
:10344000C16101624162FEF7B7FA08B1FDF791FD73
:1034500000BF3E48A063846300BF002205212720EF
:10346000FEF73CFD2720FEF729FD5BE03849206888
:10347000884257D100BF002000902C48006840F0DF
:1034800020002A4908600846006800F020000090EB
:1034900000BF00BF00BF002000902448143800681F
:1034A00040F040002149143908600846006800F0E7
:1034B0004000009000BF00BF4FF484400190022004
:1034C000029000200390032004900820059001A999
:1034D0002048FEF73FFB184818381F4908604FF096
:1034E0002060486040211C4881600021C1604FF489
:1034F00080610161002141618161C16101624162BC
:10350000FEF75AFA08B1FDF734FD00BF12486063B8
:10351000846300BF002205214720FEF7DFFC47201F
:10352000FEF7CCFC06B010BD00100140443802404C
:103530000004024000000240B86402401C13002056
:103540000048004000080240286002407C13002030
:103550000014014000180240DC13002070470000F6
:10356000F7B50446154694F83D00202846D1019849
:1035700000B10DB90120FEBD00BF94F83C00012848
:1035800001D10220F7E7012084F83C0000BF019838
:103590002062A584E58400202064212084F83D0079
:1035A0001748616BC8631748616B08641648616B04
:1035B000C8640020616B086501AE23681A1D31687C
:1035C0002B46606BFEF76EFA6FF0400021680860D2
:1035D00000BF002084F83C0000BF00BF00BF21688E
:1035E000143151E8001F41F080002168143141E896
:1035F0000002002AF3D100BF0020BCE70220BAE796
:10360000814A0008D94A0008314A000870477047CB
:1036100000BFFEE72DE9F0472DED068B054600249F
:103620009FEDFD0AB0EE408A9FEDFB0AF0EE408A66
:103630009FEDF90AB0EE409A9FEDF70AF0EE409A3E
:103640009FEDF50AB0EE40AA9FEDF30AF0EE40AA16
:10365000F24AA2F10C01101DFDF762FA01244DE0BF
:10366000EF4800EB840090ED000A601EEC4901EB8E
:10367000800080ED000A01F5CA7000EB840090ED37
:10368000000A601E01F5CA7101EB800080ED000A9E
:1036900001F5CA7000EB840090ED000A601E01F590
:1036A000CA7101EB800080ED000A01F5CA7000EBE1
:1036B000840090ED000A601E01F5CA7101EB8000E4
:1036C00080ED000A01F5CA7000EB840090ED000A5D
:1036D000601E01F5CA7101EB800080ED000A01F562
:1036E000CA7000EB840090ED000A601E01F5CA71FB
:1036F00001EB800080ED000A601CC4B2642CAFDBDB
:10370000C648103890ED010AC54880ED630AC348E9
:10371000103890ED020AC24880EDC80ABF48103840
:1037200090ED030ABF4880ED630ABC48103890ED65
:10373000050ABD4880ED630AB848103890ED060AC6
:10374000BA4880ED630AB548103890ED070AB848CA
:1037500080ED630A00240CE009F10109B04800EB98
:10376000840090ED000A30EE080AB0EE408A601C3A
:10377000C4B2642CF0DB9FEDAF0AC8EE000AA84883
:10378000C0ED640A9FEDA40AB0EE408A00240AE06E
:10379000A94800EB840090ED000A30EE280AF0EE14
:1037A000408A601CC4B2642CF2DB9FEDA20AC8EE12
:1037B000800A9B48C0EDC90A9FED970AF0EE408A47
:1037C00000240AE0974800EB840090ED000A30EEF8
:1037D000090AB0EE409A601CC4B2642CF2DB9FED83
:1037E000950AC9EE000A8F48C0ED640A9FED8A0A67
:1037F000B0EE409A00240AE08B4800EB840090ED84
:10380000000A30EE290AF0EE409A601CC4B2642C23
:10381000F2DB9FED880AC9EE800A8348C0ED640A96
:103820009FED7D0AF0EE409A00240AE07F4800EB0D
:10383000840090ED000A30EE0A0AB0EE40AA601C47
:10384000C4B2642CF2DB9FED7B0ACAEE000A774813
:10385000C0ED640A9FED700AB0EE40AA00240AE0B1
:10386000734800EB840090ED000A30EE2A0AF0EE77
:1038700040AA601CC4B2642CF2DB9FED6E0ACAEE53
:10388000800A6B48C0ED640A9FED630AF0EE40AA1F
:10389000634890ED640A694880ED000A604890ED45
:1038A000C90A664880ED010A5E4890ED640A6348E3
:1038B00080ED020A5C4890ED640A604880ED040ADD
:1038C0005A4890ED640A5D4880ED050A584890ED2D
:1038D000640A5A4880ED060A002630E0574890ED09
:1038E000040A574800EB8600D0ED000AB4EE600AE7
:1038F000F1EE10FA08D1524800EB860090ED000A74
:10390000504880ED000A1CE04C4890ED040AB1EEEE
:10391000400A4B4800EB8600D0ED000AB4EE600A86
:10392000F1EE10FA0AD1464800EB860090ED000A4D
:10393000B1EE400A434880ED000A02E0761C322EC8
:10394000CCDB00BF002730E03C4890ED050A3C4846
:1039500000EB8700D0ED000AB4EE600AF1EE10FA39
:1039600008D1374800EB870090ED000A364880ED1B
:10397000000A1CE0314890ED050AB1EE400A3048DB
:1039800000EB8700D0ED000AB4EE600AF1EE10FA09
:103990000AD12B4800EB870090ED000AB1EE400AF7
:1039A000294880ED000A02E07F1C192FCCDB00BF04
:1039B0004FF000084EE0214890ED060A204800EB49
:1039C0008800D0ED000AB4EE600AF1EE10FA08D1DA
:1039D0001B4800EB880090ED000A1C4880ED000AAF
:1039E0003BE0164890ED060AB1EE400A144800EBA1
:1039F0008800D0ED000AB4EE600AF1EE10FA27D18B
:103A00000F4800EB880090ED000AB1EE400A0F4825
:103A100080ED000A21E00000000000001C040020EE
:103A2000B8040020E007002074090020080B0020E3
:103A30009C0C00200000C8424C060020E803002037
:103A40007C00002004000020080000200C00002062
:103A500008F10108B8F1170FADDB00BF8A4890EDFF
:103A6000000A80ED000A894890ED000A864880ED42
:103A7000020A874890ED000A834880ED030A90ED22
:103A8000010AD0ED020A30EE200A80ED010A90ED25
:103A9000010AD0ED030A30EE200AD0ED010A80EED3
:103AA000801A80ED041A7B4890ED000A7648D0ED2C
:103AB000000A70EE600A90ED000A90ED041A01EE23
:103AC000200A80ED000A90ED040AF7EE000A30EEBD
:103AD000C00AD0ED010A20EE200A80ED010A90ED27
:103AE000050A80ED050A694890ED000A664880EDF8
:103AF000080A674890ED000A634880ED070A90EDD8
:103B0000060AD0ED080A30EE200A80ED060A90ED94
:103B1000060AD0ED070A30EE200AD0ED060A80EE44
:103B2000801A80ED091A5B4890ED010A5648D0EDE5
:103B3000050A70EE600A90ED050A90ED091A01EE93
:103B4000200A80ED050A90ED090AF7EE000A30EE32
:103B5000C00AD0ED060A20EE200A80ED060A90ED9C
:103B60000A0A80ED0A0A494890ED000A464880EDAD
:103B70000C0A474890ED000A434880ED0D0A90ED8D
:103B80000B0AD0ED0C0A30EE200A80ED0B0A90ED06
:103B90000B0AD0ED0D0A30EE200AD0ED0B0A80EEB4
:103BA000801A80ED0E1A3B4890ED020A3648D0ED9F
:103BB0000A0A70EE600A90ED0A0A90ED0E1A01EE04
:103BC000200A80ED0A0A90ED0E0AF7EE000A30EEA8
:103BD000C00AD0ED0B0A20EE200A80ED0B0A90ED12
:103BE000000A85ED000A90ED050A85ED010A90EDC9
:103BF0000A0A85ED020A274890ED040A2648D0ED0E
:103C0000000A30EE600A234880ED040A90ED040AB1
:103C100085ED030A90ED050A2048D0ED000A30EE4C
:103C2000600A1C4880ED050A90ED050A85ED040A3E
:103C300090ED060A1A48D0ED000A30EE600A1548E9
:103C400080ED060A90ED060A85ED050A95ED000A5D
:103C5000144880ED000A95ED010A80ED010A95ED0A
:103C6000020A80ED020A95ED030A0F4880ED000A72
:103C700095ED040A80ED010A95ED050A80ED020A32
:103C8000BDEC068BBDE8F08740040020BC0100209D
:103C9000C0010020E80300200400002008000020EC
:103CA0000C00002024030020180300201CB502E0B3
:103CB000642002F0CFFAFCF723FF0028F8D1CC4AA9
:103CC000A2F10C01101DFCF72BFFDFEDCA1A9FEDCE
:103CD000CA1ADFEDCA0A9FEDCA0ACA4800F012FCF0
:103CE000C948C34B103BC94AC9490090C94802F0B2
:103CF00065F9C64AC649C848FCF7BEFCC44890ED01
:103D0000000AC64880ED000AC54880ED000AC54893
:103D100080ED000ABE4890ED010AC04880ED010A1E
:103D2000BF4880ED010ABF4880ED010AB84890ED18
:103D3000020ABA4880ED020AB94880ED020AB94881
:103D400080ED020A00BF02F0A4FA0190B64B93ED99
:103D5000010ADFEDB60A20EE200ABDEEC00A10EE21
:103D6000103A1AB2B04B93ED030ADFEDB00A20EE21
:103D7000200ABDEEC00A10EE103A19B2AA4B93ED1C
:103D8000000ADFEDAA0A20EE200ABDEEC00A10EEFE
:103D9000103A18B202F040FAA548FFF73BFC9A48E7
:103DA000934B103B994A9A4900909A4802F006F9C1
:103DB0008F481038D0ED040AB0EE600A02F094F992
:103DC000974890ED000A974880ED000A934890EDDF
:103DD000000A934880ED000A90ED000A9548D0ED66
:103DE000000A20EE200A8F48D0ED000A914890ED9D
:103DF000011A00EE810A8648D0ED000A8D4890ED48
:103E0000021A00EE810A854880ED000A844890ED90
:103E1000010A844880ED010A804890ED010A80483B
:103E200080ED010A90ED010A8248D0ED000A20EEF3
:103E3000200A7C48D0ED010A7E4890ED011A00EE80
:103E4000810A7348D0ED010A7A4890ED021A00EE1B
:103E5000810A724880ED010A714890ED020A7148AA
:103E600080ED020A6D4890ED020A6D4880ED020A6D
:103E700090ED020A6F48D0ED000A20EE200A694852
:103E8000D0ED020A6B4890ED011A00EE810A6048FD
:103E9000D0ED020A674890ED021A00EE810A5F48F1
:103EA00080ED020A594B02465A499FED630A5A486F
:103EB000FCF74EFD614B1A1F111F574802F00AF81C
:103EC000594890ED010A80ED070A5C48083890EDEA
:103ED000000ADFED5B0A20EE200ADFED5A0A80EED1
:103EE000201A514880ED011A90ED010AD0ED070A21
:103EF00030EE600ADFED520AB4EEE00AF1EE10FA9D
:103F000005DD008C401E00B24749088412E0464897
:103F100090ED010AD0ED070A30EE600ADFED4A0AA3
:103F2000B4EEE00AF1EE10FA04D2008C401C00B2AC
:103F30003D4908843C4890ED010AB0F9200000EEAC
:103F4000900AF8EEE00A9FED411A00EE810A364829
:103F500080ED020A3948083890ED020ADFED380A90
:103F600020EE200ADFED370A80EE201A2E4880ED81
:103F7000001A3248083890ED010ADFED310A20EED0
:103F8000200ADFED300A80EE201A274880ED031A60
:103F9000204890ED020ADFED2A0A20EE200ADFED2C
:103FA000290A80EE201A204880ED051A194890ED64
:103FB000010ADFED230A20EE200ADFED220A80EE5F
:103FC000201A194880ED041A124890ED000ADFED1E
:103FD0001C0A20EE200ADFED1B0A80EE201A124890
:103FE00080ED061A012101A802F040F9ABE60000BD
:103FF0001C04002000000000CDCC4C3E0000C84452
:1040000000A08C45EC02002030040020300300208A
:1040100024030020180300203C030020B8030020E4
:10402000AC030020A0030020C80200200000C8420A
:10403000C4030020507400086F12833A5403002018
:1040400000003443DA0F4940000034C30000B44399
:1040500010B50F480F4908600320486000210D4843
:104060008160C1604FF4102101614FF40011416182
:10407000002101760121417600218176C176017708
:104080004177FDF75EF908B1FCF773FF10BD000042
:10409000006400406011002010B50F480F4908600F
:1040A0000320486000210D488160C1604FF4102159
:1040B00001614FF400114161002101760121417637
:1040C00000218176C17601774177FDF73AF908B191
:1040D000FCF74FFF10BD0000006800408811002071
:1040E00008B500BF002000901A48006840F4001096
:1040F000184908600846006800F40010009000BFEE
:1041000000BF00BF002000900846006840F4800017
:1041100008600846006800F48000009000BF00BFFF
:10412000002205210C20FDF7D9FE0C20FDF7C6FE6C
:10413000002205214520FDF7D1FE4520FDF7BEFEFA
:10414000002205214620FDF7C9FE4620FDF7B6FEF8
:1041500008BD00003038024000B587B01C22064977
:104160006846FCF778F90021684602F09CF803499C
:10417000086007B000BD00005C7400083802002031
:1041800000B587B0142102A8FCF79FF900BF0020FA
:1041900001907E48006840F002007C4908600846B3
:1041A000006800F00200019000BF00BF00BF0020C7
:1041B00001900846006840F040000860084600682A
:1041C00000F04000019000BF00BF00BF0020019040
:1041D0000846006840F0010008600846006800F0EA
:1041E0000100019000BF00BF00BF00200190084601
:1041F000006840F0080008600846006800F0080009
:10420000019000BF00BF00BF002001900846006879
:1042100040F0040008600846006800F004000190C7
:1042200000BF00BF00BF002001900846006840F4B6
:10423000807008600846006800F48070019000BF3C
:1042400000BF00BF002001900846006840F08000D9
:1042500008600846006800F08000019000BF00BFC1
:1042600000BF002001900846006840F02000086070
:104270000846006800F02000019000BF00BF002247
:1042800089154348FDF760FD012240214148FDF7B3
:104290005BFD002210214048FDF756FD002241F24F
:1042A00001013E48FDF750FDC02002904FF48810F8
:1042B00003900020049002A93948FDF74BFC4FF40D
:1042C000807002900120039000200490059002A9C4
:1042D0002F48FDF73FFC40200290012003900490FE
:1042E000059002A92B48FDF735FC082002904FF4F9
:1042F000041003900020049002A92648FDF72AFC30
:10430000102002900120039004900220059002A941
:104310002148FDF71FFC302002904FF40410039059
:104320000020049002A91A48FDF714FC4FF48050B5
:104330000290012003900490059002A91748FDF710
:1043400009FC01200290039004900220059002A92C
:104350001248FDF7FFFB002205210920FDF7BEFDF5
:104360000920FDF7ABFD002205210A20FDF7B6FD6F
:104370000A20FDF7A3FD002205211720FDF7AEFD61
:104380001720FDF79BFD07B000BD0000303802404C
:1043900000080240001802400000024000040240F1
:1043A0000020024010B50E480E4908604FF482709C
:1043B000486000210B488160C160016101214161B9
:1043C000490281611021C161002101624162816263
:1043D0000A21C162FEF784F908B1FCF7CAFD10BDDD
:1043E00000300140B011002000B587B01C216846A4
:1043F000FCF76BF815481649086053204860002107
:104400001348816040F2CF71C16000210161816178
:10441000FEF743FB08B1FCF7ACFD0D48FEF75DFD70
:1044200008B1FCF7A6FD60200090002001900290EA
:104430000490002269460648FEF7CDFC08B1FCF75F
:1044400098FD0348FEF796FC07B000BD004401400C
:104450000812002010B50B480B4908604FF4E130FA
:104460004860002108488160C16001610C21416100
:1044700000218161C161FEF7E1FE08B1FCF779FD21
:1044800010BD0000001001405012002010B50A4875
:104490000A4908600A484860002108488160C160F4
:1044A00001610C21416100218161C161FEF7C6FEFD
:1044B00008B1FCF75EFD10BD0048004094120020DA
:1044C000A086010010B50B480B4908604FF4E1309D
:1044D0004860002108488160C16001610C21416190
:1044E00000218161C161FEF7A9FE08B1FCF741FD21
:1044F00010BD000000140140D812002000BFFEE7EC
:1045000000BFFEE780ED060AC0ED000A80ED011A4B
:10451000C0ED021A704700007CB504460D461646F1
:10452000164800681821B0FBF1F01549B0FBF1F016
:104530004FF47A71484301906068B0F5827F0DD1E5
:104540002B46002280212046009600F02DF898B1DD
:10455000606D40F02000606503207CBD00BF0198C5
:1045600000B908E00198401E019020688068C0F3FF
:10457000C0100028F3D100BF0020EEE74002002069
:1045800040420F0013B582B00446002001904FF462
:104590007A70012301AA03A900902046FEF766F96C
:1045A0009DF8040004B010BD2DE9F84F04460D46F7
:1045B00090461E46DDF82890FDF7CCFBA0EB0900E5
:1045C000371AFDF7C7FB82462C480068C0F3CB3092
:1045D0007843009045E0701C002842D0FDF7BAFBFC
:1045E000A0EB0A00B84200D2A7BB2068406820F0C8
:1045F000E000216848606068B0F5827F0DD1A06856
:10460000B0F5004F03D0A068B0F5806F05D12068E9
:10461000006820F0400021680860A06AB0F5005FE3
:104620000DD100BF2068006820F4005021680860A8
:104630002068006840F400502168086000BF012035
:1046400084F8510000BF002084F8500000BF032010
:10465000BDE8F88FFFE7009800B900270098401EDA
:104660000090206880682840A84201D1012000E025
:1046700000204045AFD10020EAE7000040020020C2
:1046800010B500BF502080F31188BFF34F8FBFF3E8
:104690006F8F00BF02F0B0FD18B14FF08050044999
:1046A000086000BF002080F3118800BF10BD00002B
:1046B00004ED00E000B593B0302107A8FBF705FF3B
:1046C000142102A8FBF701FF00BF0020019024483D
:1046D000006840F08050224908600846006800F0F9
:1046E0008050019000BF00BF00BF002001901D4816
:1046F000006840F480401B4908600846006800F4E8
:104700008040019000BF00BF012007900004089086
:1047100002200D9041050E9106210F91A8211091C4
:10472000022111910421129107A8FDF78BFD08B118
:10473000FCF71FFC0F200290022003900020049041
:104740004FF4A05005904FF480500690052102A828
:10475000FDF716FC08B1FCF70CFC13B000BD00001F
:1047600040380240007000400348006840F4700088
:10477000014908607047000088ED00E010B502486C
:10478000FEF72DFA10BD00003C14002010B50268A1
:10479000294B98420ED0B0F1804F0BD0274B984256
:1047A00008D0274B984205D0264B984202D0264B82
:1047B000984203D122F070024B681A431E4B984274
:1047C00020D0B0F1804F1DD01C4B98421AD01C4B0A
:1047D000984217D01B4B984214D01B4B984211D0D3
:1047E0001A4B98420ED01A4B98420BD0194B984254
:1047F00008D0194B984205D0184B984202D0184B5C
:10480000984203D122F44072CB681A4322F080030D
:104810004C6943EA040202608B68C3620B688362DE
:10482000054B984202D0084B984201D10B690363B3
:104830000123436110BD000000000140000400405E
:1048400000080040000C004000040140004001400E
:10485000004401400048014000180040001C004096
:104860000020004030B5056A25F001050562026AA6
:104870004368846924F0700424F003040D682C4319
:1048800022F002028D682A43104DA84200D103E0B5
:104890000F4DA84206D100BF22F00802CD682A437E
:1048A00022F00402094DA84202D0094DA84207D1C6
:1048B00023F4807323F400734D692B438D692B43DC
:1048C000436084614D684563026230BD0000014071
:1048D0000004014030B5056A25F010050562026A42
:1048E0004368846924F4E04424F440740D6844EA85
:1048F000052422F020028D6842EA0512124DA842DA
:1049000000D103E0114DA84207D100BF22F0800280
:10491000CD6842EA051222F040020B4DA84202D0B7
:104920000A4DA84209D123F4806323F400634D6942
:1049300043EA85038D6943EA8503436084614D68DA
:104940008563026230BD00000000014000040140A8
:1049500030B5056A25F480750562026A4368C4694A
:1049600024F0700424F003040D682C4322F4007238
:104970008D6842EA0522124DA84200D103E0114D94
:10498000A84207D100BF22F40062CD6842EA0522A6
:1049900022F480620A4DA84202D00A4DA84209D1F1
:1049A00023F4805323F400534D6943EA05138D69C2
:1049B00043EA05134360C4614D68C563026230BDBC
:1049C000000001400004014030B5056A25F480551F
:1049D0000562036A4468C26922F4E04222F440722C
:1049E0000D6842EA052223F400538D6843EA05333B
:1049F000084DA84202D0084DA84204D124F48044B6
:104A00004D6944EA85144460C2614D6805640362DF
:104A100030BD0000000001400004014070B50546B3
:104A2000AC6B0020E085E0842046FEF796FA70BD6E
:104A300070B506460025B46B20684069C0F3C01508
:104A400094F83D00212805D125B10020E0842046BE
:104A500000F08FF820684069C0F3801594F83E009C
:104A6000222805D125B10020E085204600F03BF842
:104A7000206C40F0100020642046FEF76EFA70BDF6
:104A800070B50546AC6B2868006800F48070F8B912
:104A90000020E08400BF00BF2168143151E8001FEE
:104AA00021F080002168143141E80002002AF3D18E
:104AB00000BF00BF00BF21680C3151E8001F41F06A
:104AC000400021680C3141E80002002AF3D102E0E5
:104AD0002046FEF79BFD70BD70B50446A56B2846C9
:104AE000FEF795FD70BD00BF00BF02680C3252E8B2
:104AF000002F22F4907102680C3242E80013002B60
:104B0000F3D100BF00BF00BF0268143252E8002F8B
:104B100022F001010268143242E80013002BF3D1A5
:104B200000BF016B01290ED100BF00BF02680C322B
:104B300052E8002F22F0100102680C3242E8001304
:104B4000002BF3D100BF202180F83E10002101632B
:104B5000704710B504462068C06820F04000216806
:104B6000C860202084F83D002046FEF74FFD00205D
:104B700010BD00BF00BF02680C3252E8002F22F0C7
:104B8000C00102680C3242E80013002BF3D100BFD1
:104B9000202180F83D107047F8B5044694F83E0097
:104BA000222873D1A068B0F5805F0CD1206950B97C
:104BB0000025A66A20684068C0F308003080A06A1B
:104BC000801CA06215E0A56A0026A068B0F5805F91
:104BD00003D0A06828B9206918B9206840682870F7
:104BE00004E02068406800F07F002870A06A401C44
:104BF000A062E08D401E80B2E085002844D120688C
:104C0000C06820F020002168C8602068C06820F4D7
:104C100080702168C8602068406920F00100216828
:104C20004861202084F83E00206B012826D1002016
:104C3000206300BF00BF21680C3151E8001F21F044
:104C4000100021680C3141E80002002AF3D100BFB6
:104C50002068006800F0100010280AD100BF002072
:104C6000009020680068009020684068009000BFB5
:104C700000BFA18D2046FEF76FF902E02046FEF747
:104C80006DFC0020F8BD01E00020FBE70220F9E701
:104C90002DE9F84F04462068006920F44050E1688F
:104CA0000843216808612169A068084361690843D5
:104CB000E169084300902068C06849F20C618843AC
:104CC000009908432168C8602068406920F440705A
:104CD000A16908432168486176492068884203D069
:104CE00075492068884203D1FDF744FA814602E005
:104CF000FDF730FA8146E069B0F5004F6CD1022033
:104D00006168A0FB015003461920A9FB0070014611
:104D10002A463846FBF728FB6421B0FBF1F04FEA46
:104D2000001A02206168A0FB01510B461920A9FB63
:104D300000712A463846FBF717FB8346022061685C
:104D4000A0FB015003461920A9FB00712A463846F2
:104D5000FBF70AFB6421B0FBF1F000EBC00101EBB3
:104D60000010ABEB8000322101EBC0006421B0FBEE
:104D7000F1F000F0F8000AEB400A02206168A0FBA5
:104D8000015003461920A9FB007001462A46384607
:104D9000FBF7EAFA834602206168A0FB0150034654
:104DA0001920A9FB00712A463846FBF7DDFA642179
:104DB000B0FBF1F000EBC00101EB0010ABEB8000A9
:104DC000322101EBC0006421B0FBF1F000F00700DC
:104DD0005044216888606AE004206168A0FB0150AB
:104DE00003461920A9FB007001462A463846FBF706
:104DF000BBFA824604206168A0FB015003461920DB
:104E0000A9FB007001462A463846FBF7ADFA64213B
:104E1000B0FBF1F000EBC00101EB0010AAEB800049
:104E2000322101EB00106421B0FBF1F000F0F00A38
:104E300004206168A0FB017003461920A9FB005102
:104E40003A462846FBF790FA6421B0FBF1F00AEBF2
:104E5000001A04206168A0FB01510B461920A9FB30
:104E600000712A463846FBF77FFA834604206168C2
:104E7000A0FB015003461920A9FB007001462A46F9
:104E80003846FBF771FA6421B0FBF1F000EBC0018A
:104E900001EB0010ABEB8000322101EB001064212C
:104EA000B0FBF1F000F00F00504421688860BDE8CD
:104EB000F88F00000010014000140140014691F8F5
:104EC0003D00212828D18868B0F5805F0BD10869A2
:104ED00048B90A6A1088C0F308000B685860086A6D
:104EE000801C086205E00B6A581C086218780B6881
:104EF0005860C88C401E80B2C88458B90868C06821
:104F000020F080000B68D8600868C06840F040005E
:104F10000B68D860002070470220FCE710B50248FB
:104F2000FEF71CF810BD00005012002010B502481A
:104F3000FEF714F810BD00009412002010B50248CE
:104F4000FEF70CF810BD0000D812002000BFFEE7ED
:104F50004100080218BF04200A0E18BF40F00100EB
:104F60004FF07F4232EA010108BF40F00200012801
:104F700008BF05207047000002480068C0F3022007
:104F8000704700000CED00E010B5002804DB0A07B4
:104F9000130E054A135406E00A07140E034A00F0E4
:104FA0000F031B1FD45410BD00E400E018ED00E017
:104FB00010B54FF00E402DED028BB0EE408A18EE8A
:104FC000104A00EB4400B0F1506F4AD84FF0FC405B
:104FD000B0EB440F22D2B0EEC80AF7EE000A30EE72
:104FE000C00AF6EE000A60EE208A18EE900A01F080
:104FF000D5FC01EE100A14F0004F1DBFDFED2D0AA5
:105000009FED2D0AB1EE411ADFED2C0A08BF9FED8E
:105010002C0AF8EE001A21EE218A05E0DFED290ABC
:1050200068EE088AB0EE600A9FED271ADFED271AB6
:1050300030EE080A48EE811A9FED251A08EEA11AF3
:10504000DFED241A48EE811A9FED231A08EEA11A0B
:1050500068EE281ABDEC028B01EE810A30EE200AC0
:1050600010BD4FF0E440B0EB440F0CD918EE100A1D
:10507000FFF76EFF042808BF00F084F9B0EE480A7D
:10508000BDEC028B10BD4FF07F40B0EB440F07D258
:10509000B0EE480ABDEC028BBDE8104000F063B9E9
:1050A0000120FBF741FABDEC028BBDE8104000F097
:1050B00061B900000000C9BF22AAFDB90000C93FC4
:1050C00022AAFD390000000024FE1C3DC78AD83CFE
:1050D0001E67383D1B93993DAFAA2A3E10EE100A79
:1050E00010B510EE901A4FF0684202EB40032DED20
:1050F000028BB3F1654F3CBF02EB4102B2F1654F49
:105100007CD200BFC0F3C753C1F3C7529A1A1B2AFF
:1051100009DD10F0004F14BF9FED6E0A9FED6E0A7F
:10512000BDEC028B10BD12F11A0F1BDA11F0004F0B
:1051300009D010F0004F0CBF9FED680A9FED680A80
:10514000BDEC028B10BD80EE208A18EE100AFFF72E
:10515000FFFE042808BF00F015F9B0EE480ABDECC8
:10516000028B10BD4200B2EB410F37D910F0004F57
:1051700019BFDFED5C1A9FED5C1ADFED5C1A9FED45
:105180005C1AB0EE602A0A46F1EE400A80F0004157
:10519000B0EE420A10460A1A5200B2F1807F34D2B1
:1051A000484010F0004FDFED532A9FED533A1DBFEA
:1051B000BEEE002A71EEE21A31EE431AB6EE002A74
:1051C00004BF71EEA21A31EE031AF0EE402A42EE4D
:1051D000602A40EE020A82EEA02A18E011F0004F89
:1051E00004BF9FED461AF0EE411AD4D010F0004FE4
:1051F0001CBFDFED431A9FED431A00E026E004BF19
:10520000DFED411A9FED411AC5E780EE202A22EE1C
:10521000020ADFED3F0ADFED3F2ABDEC028B40EED4
:10522000202ADFED3D0A40EE220ADFED3C2A40EE67
:10523000202ADFED3B0A40EE220A22EE000A00EEB1
:10524000201A31EE020A30EE210A10BD4FF07F42E3
:10525000B2EB400F28BFB2EB410F05D2BDEC028B81
:10526000BDE8104000F082B840EA01035B0008BFCF
:1052700041F0FF410BD0B2EB400F08BFB2EB410F42
:1052800008D120F0804000EE100A21F0804100EEAD
:10529000901A37E7B2EB400F12BF5FEA410240F0CD
:1052A000FF4001F000413FF42DAF4A0092EA400375
:1052B0003FF528AF002AACBF9FED1A1A9FED1A1ACE
:1052C00020EE010A60EE810A10EE100A10EE901A2C
:1052D00018E70000DB0FC9BFDB0FC93FDB0F4940F8
:1052E000DB0F49C00000C9BF22AAFDB90000C93FB9
:1052F00022AAFD390060ED3EC30ACE37000000004F
:10530000000049C022AA7DBA0000494022AA7D3A85
:105310002DAD65BD8FB8D53D0FB511BE61C84C3EF2
:10532000A8AAAABE0000804F0000802F10B52DED66
:10533000028BB1EEC08A18EE100A20F00040C0F1D6
:10534000FF40C00F0AD010EE100A20F00040C0F15C
:10535000FF40C00F04BF0120FBF7E6F8B0EE480A9B
:10536000BDEC028B10BD30EE000A704730EE200A13
:1053700070470000DFED020A80EEA00A70470000CF
:10538000000000009FED020A20EE000A70470000B6
:105390000000001070B52DED028B8AB005460C465A
:1053A00016460DB104B11EB90AB0BDEC028B70BD3A
:1053B00094ED000AB5EEC00AF1EE10FA0DD194EDAD
:1053C000010AB5EEC00AF1EE10FA06D194ED020A18
:1053D000B5EEC00AF1EE10FA7DD09FED600AB0EE96
:1053E000408A00200790089009900490059006904C
:1053F0005B4A07CA01AB07C395ED010AD5ED030A65
:1054000020EE200AD5ED000A95ED021A00EEC10A41
:10541000F0EE000A20EE200A8DED070A95ED000A55
:10542000D5ED010A20EE200AD5ED020A95ED031A0A
:1054300000EE810AF0EE000A20EE200A8DED080A47
:1054400095ED000A20EE000AD5ED030A95ED031A4A
:1054500000EE810AF7EE000AB0EE001A51EE000AE3
:10546000CDED090A01AB22463146284600F07AF814
:10547000D4ED000A60EEA00A94ED011AD4ED011AF1
:1054800041EE210A94ED021AD4ED021A41EE210AEE
:10549000B0EE600AFBF73EFAB0EE408A94ED000AE7
:1054A00020EE080A84ED000A94ED010A20EE080AB5
:1054B00084ED010A94ED020A20EE080A84ED020A46
:1054C00094ED010ADDED090A20EE200AD4ED020A6E
:1054D0009DED081A00E03EE000EEC10A8DED040AE1
:1054E00094ED020ADDED070A20EE200AD4ED000A51
:1054F0009DED091A00EEC10A8DED050A94ED000A32
:10550000DDED080A20EE200AD4ED010A9DED071A10
:1055100000EEC10A8DED060A96ED000ADDED010AE6
:105520009DED041A00EE810A86ED000A96ED010A4F
:10553000DDED020A9DED051A00EE810A86ED010AF5
:1055400096ED020ADDED030A9DED061A00EE810AD2
:1055500086ED020A00BF00BF26E700000000000041
:10556000987400082DE9F0412DED048B07460D4697
:1055700014461E469FED580AB0EE409A9FED560A1B
:10558000B0EE408A9FED540AF0EE408AD4ED000A56
:1055900060EEA00A94ED011AD4ED011A41EE210A41
:1055A00094ED021AD4ED021A41EE210AB0EE600A1F
:1055B000FBF7B0F9F7EE000A80EE801AB0EE419AE0
:1055C000D5ED000AB0EE600AFBF73BF8F0EE409A2A
:1055D000D5ED010AB0EE600AFBF733F879EE809A58
:1055E000D5ED020AB0EE600AFBF72BF839EE800A1F
:1055F000F0EE408A3948D0ED000A79EE600AB0EE4C
:10560000600AFBF71EF8B0EE408A9FED350AB4EE53
:10561000C08AF1EE10FA06DC9FED320AF4EEC08A81
:10562000F1EE10FA53DD9FED2C2AB0EE420A9FED09
:105630002A2AF0EE421AB7EE002AF0EE420A9FED57
:10564000262AB0EE421AB5EEC08AF1EE10FA05DD58
:105650009FED232AC2EE082AB0EE620A9FED222AAD
:10566000B4EEC20AF1EE10FA03D29FED1B2AB0EE9F
:10567000420AF5EEC08AF1EE10FA05DD9FED192A17
:10568000C2EE282AF0EE621AB7EE002AB4EEC20A81
:10569000F1EE10FA03D220EE802AF0EE420AB7EEC5
:1056A000002AF4EEC21AF1EE10FA03D220EEA12A7B
:1056B000F0EE420A9FED0D2A20EE822AB0EE421A49
:1056C00086ED001A86ED011A86ED021A00BFBDECC8
:1056D000048BBDE8F081000000000000C40200203F
:1056E000CDCCCC3D8FC2F53D9A99993ECDCC4C3E68
:1056F00010B52DED048B86B00446B0EE408AF0EE76
:10570000608AB0EE419A00200390049005900090CA
:1057100001900290B0EE000AC8EE000AF0EE609A26
:10572000B0EE690AFAF781FF8DED030AB0EE000AC8
:10573000C8EE800AF0EE609AB0EE690AFAF775FFDB
:105740008DED040AB0EE000AC9EE000AF0EE609A90
:10575000B0EE690AFAF769FF8DED050AB0EE000AAE
:10576000C8EE000AF0EE609AB0EE690AFBF7E4F8C2
:105770008DED000AB0EE000AC8EE800AF0EE609AE5
:10578000B0EE690AFBF7D8F88DED010AB0EE000A19
:10579000C9EE000AF0EE609AB0EE690AFBF7CCF8A9
:1057A0008DED020A9DED050ADDED040A20EE200ACA
:1057B000DDED030A20EE200ADDED020A9DED011A5F
:1057C00060EE810A9DED001A00EE810A84ED000A68
:1057D0009DED020ADDED040A20EE200ADDED030A4C
:1057E00020EE200ADDED050A9DED011A60EE810A2A
:1057F0009DED001A00EEC10A84ED010A9DED050A37
:10580000DDED010A20EE200ADDED030A20EE200A7C
:10581000DDED020A9DED041A60EE810A9DED001A8D
:1058200000EE810A84ED020A9DED050ADDED040A11
:1058300020EE200ADDED000A20EE200ADDED020A4E
:105840009DED011A60EE810A9DED031A00EEC10A7A
:1058500084ED030A06B0BDEC048B10BDB0EE402A07
:105860009FED1F4AF5EE003A42EE043AF0EE630A6D
:10587000FDEEE03A13EE901AF5EEC00AF1EE10FAE2
:1058800000D2491E03EE901AF8EEE33A70EEE33AC6
:10589000F0EE630ADFED133A60EEA31AFCEEE13A94
:1058A00013EE902AC2F3080003EE900AF8EE633A72
:1058B00031EEE31A0C4A02EB8002D2ED002A0A4BC9
:1058C000421C03EB820292ED003AF7EE003A73EECF
:1058D000C13A63EEA23AB0EE630A01EE030A7047E2
:1058E00083F9223E00000044B0740008F0EE400A44
:1058F000F5EEC00AF1EE10FA09D29FED240AF4EE9B
:10590000C00AF1EE10FA02DBB0EE600A70479FEDBC
:10591000200A20EE801ABDEEC10A10EE101AF5EE34
:10592000C00AF1EE10FA00D2491E00EE101AB8EECD
:10593000C00A31EE400AB0EE401A9FED160A21EE81
:10594000002ABCEEC20A10EE102AC2F3080000EED4
:10595000100AB8EE400A72EE401A0F4A02EB8002BB
:1059600092ED003A0C4B421C03EB8202D2ED003A5E
:10597000B7EE000A30EE610A20EE030AF0EE402A8C
:1059800041EEA32AB0EE620AC0E70000CD024CB49B
:1059900083F9223E00000044B074000870B5002571
:1059A000002400BFFBF77CF880215548FEF7EAFD94
:1059B00055215348FEF7E6FD55215148FEF7E2FD1B
:1059C0000546FBF763F800BF962000F035F900BFED
:1059D000FBF766F880214A48FEF7D4FD5521484878
:1059E000FEF7D0FD55214648FEF7CCFD0546FBF7F6
:1059F0004DF800BF962000F01FF900BFFBF750F8EC
:105A0000B6217E20FBF7BAF9FBF740F800BF502023
:105A100000F006F900BFFBF743F880213848FEF795
:105A2000B1FD55213648FEF7ADFD55213448FEF74E
:105A3000A9FD0546FBF72AF800BF962000F0FCF808
:105A400000BFFBF72DF880212D48FEF79BFD552167
:105A50002B48FEF797FD55212948FEF793FD054693
:105A6000FBF714F800BF962000F0E6F81E2D01D0D9
:105A7000012070BD00243FE000BFFBF711F804EBEC
:105A80004402204B1A44517804EB4402985CFBF723
:105A900075F9FAF7FBFF00BF962000F0CDF800BFC4
:105AA000FAF7FEFF04EB4400164A105C40F0800158
:105AB0001348FEF767FD55211148FEF763FD552198
:105AC0000F48FEF75FFD0546FAF7E0FF00BF96209E
:105AD00000F0B2F804EB44000A4908444078A842B8
